{
  "contractName": "Trader",
  "abi": [
    {
      "inputs": [],
      "stateMutability": "nonpayable",
      "type": "constructor"
    },
    {
      "anonymous": false,
      "inputs": [
        {
          "indexed": false,
          "internalType": "uint256",
          "name": "amount",
          "type": "uint256"
        },
        {
          "indexed": false,
          "internalType": "int256",
          "name": "price",
          "type": "int256"
        },
        {
          "indexed": false,
          "internalType": "bool",
          "name": "side",
          "type": "bool"
        },
        {
          "indexed": false,
          "internalType": "address",
          "name": "user",
          "type": "address"
        },
        {
          "indexed": false,
          "internalType": "uint256",
          "name": "expiration",
          "type": "uint256"
        },
        {
          "indexed": false,
          "internalType": "address",
          "name": "targetTracer",
          "type": "address"
        }
      ],
      "name": "CheckOrder",
      "type": "event"
    },
    {
      "anonymous": false,
      "inputs": [
        {
          "indexed": false,
          "internalType": "address",
          "name": "sig",
          "type": "address"
        }
      ],
      "name": "Verify",
      "type": "event"
    },
    {
      "inputs": [],
      "name": "EIP712_DOMAIN",
      "outputs": [
        {
          "internalType": "bytes32",
          "name": "",
          "type": "bytes32"
        }
      ],
      "stateMutability": "view",
      "type": "function",
      "constant": true
    },
    {
      "inputs": [
        {
          "internalType": "address",
          "name": "",
          "type": "address"
        }
      ],
      "name": "nonce",
      "outputs": [
        {
          "internalType": "uint256",
          "name": "",
          "type": "uint256"
        }
      ],
      "stateMutability": "view",
      "type": "function",
      "constant": true
    },
    {
      "inputs": [
        {
          "components": [
            {
              "components": [
                {
                  "internalType": "uint256",
                  "name": "amount",
                  "type": "uint256"
                },
                {
                  "internalType": "int256",
                  "name": "price",
                  "type": "int256"
                },
                {
                  "internalType": "bool",
                  "name": "side",
                  "type": "bool"
                },
                {
                  "internalType": "address",
                  "name": "user",
                  "type": "address"
                },
                {
                  "internalType": "uint256",
                  "name": "expiration",
                  "type": "uint256"
                },
                {
                  "internalType": "address",
                  "name": "targetTracer",
                  "type": "address"
                },
                {
                  "internalType": "uint256",
                  "name": "nonce",
                  "type": "uint256"
                }
              ],
              "internalType": "struct Types.LimitOrder",
              "name": "order",
              "type": "tuple"
            },
            {
              "internalType": "bytes32",
              "name": "sigR",
              "type": "bytes32"
            },
            {
              "internalType": "bytes32",
              "name": "sigS",
              "type": "bytes32"
            },
            {
              "internalType": "uint8",
              "name": "sigV",
              "type": "uint8"
            }
          ],
          "internalType": "struct Types.SignedLimitOrder[]",
          "name": "makerOrders",
          "type": "tuple[]"
        },
        {
          "components": [
            {
              "components": [
                {
                  "internalType": "uint256",
                  "name": "amount",
                  "type": "uint256"
                },
                {
                  "internalType": "int256",
                  "name": "price",
                  "type": "int256"
                },
                {
                  "internalType": "bool",
                  "name": "side",
                  "type": "bool"
                },
                {
                  "internalType": "address",
                  "name": "user",
                  "type": "address"
                },
                {
                  "internalType": "uint256",
                  "name": "expiration",
                  "type": "uint256"
                },
                {
                  "internalType": "address",
                  "name": "targetTracer",
                  "type": "address"
                },
                {
                  "internalType": "uint256",
                  "name": "nonce",
                  "type": "uint256"
                }
              ],
              "internalType": "struct Types.LimitOrder",
              "name": "order",
              "type": "tuple"
            },
            {
              "internalType": "bytes32",
              "name": "sigR",
              "type": "bytes32"
            },
            {
              "internalType": "bytes32",
              "name": "sigS",
              "type": "bytes32"
            },
            {
              "internalType": "uint8",
              "name": "sigV",
              "type": "uint8"
            }
          ],
          "internalType": "struct Types.SignedLimitOrder[]",
          "name": "takerOrders",
          "type": "tuple[]"
        },
        {
          "internalType": "address",
          "name": "market",
          "type": "address"
        }
      ],
      "name": "executeTrade",
      "outputs": [],
      "stateMutability": "nonpayable",
      "type": "function"
    },
    {
      "inputs": [
        {
          "components": [
            {
              "internalType": "uint256",
              "name": "amount",
              "type": "uint256"
            },
            {
              "internalType": "int256",
              "name": "price",
              "type": "int256"
            },
            {
              "internalType": "bool",
              "name": "side",
              "type": "bool"
            },
            {
              "internalType": "address",
              "name": "user",
              "type": "address"
            },
            {
              "internalType": "uint256",
              "name": "expiration",
              "type": "uint256"
            },
            {
              "internalType": "address",
              "name": "targetTracer",
              "type": "address"
            },
            {
              "internalType": "uint256",
              "name": "nonce",
              "type": "uint256"
            }
          ],
          "internalType": "struct Types.LimitOrder",
          "name": "order",
          "type": "tuple"
        }
      ],
      "name": "hashOrder",
      "outputs": [
        {
          "internalType": "bytes32",
          "name": "",
          "type": "bytes32"
        }
      ],
      "stateMutability": "view",
      "type": "function",
      "constant": true
    },
    {
      "inputs": [],
      "name": "getDomain",
      "outputs": [
        {
          "internalType": "bytes32",
          "name": "",
          "type": "bytes32"
        }
      ],
      "stateMutability": "view",
      "type": "function",
      "constant": true
    },
    {
      "inputs": [
        {
          "internalType": "address",
          "name": "signer",
          "type": "address"
        },
        {
          "components": [
            {
              "internalType": "uint256",
              "name": "amount",
              "type": "uint256"
            },
            {
              "internalType": "int256",
              "name": "price",
              "type": "int256"
            },
            {
              "internalType": "bool",
              "name": "side",
              "type": "bool"
            },
            {
              "internalType": "address",
              "name": "user",
              "type": "address"
            },
            {
              "internalType": "uint256",
              "name": "expiration",
              "type": "uint256"
            },
            {
              "internalType": "address",
              "name": "targetTracer",
              "type": "address"
            },
            {
              "internalType": "uint256",
              "name": "nonce",
              "type": "uint256"
            }
          ],
          "internalType": "struct Types.LimitOrder",
          "name": "order",
          "type": "tuple"
        },
        {
          "internalType": "bytes32",
          "name": "sigR",
          "type": "bytes32"
        },
        {
          "internalType": "bytes32",
          "name": "sigS",
          "type": "bytes32"
        },
        {
          "internalType": "uint8",
          "name": "sigV",
          "type": "uint8"
        }
      ],
      "name": "verify",
      "outputs": [
        {
          "internalType": "bool",
          "name": "",
          "type": "bool"
        }
      ],
      "stateMutability": "view",
      "type": "function",
      "constant": true
    },
    {
      "inputs": [
        {
          "internalType": "address",
          "name": "signer",
          "type": "address"
        },
        {
          "components": [
            {
              "internalType": "uint256",
              "name": "amount",
              "type": "uint256"
            },
            {
              "internalType": "int256",
              "name": "price",
              "type": "int256"
            },
            {
              "internalType": "bool",
              "name": "side",
              "type": "bool"
            },
            {
              "internalType": "address",
              "name": "user",
              "type": "address"
            },
            {
              "internalType": "uint256",
              "name": "expiration",
              "type": "uint256"
            },
            {
              "internalType": "address",
              "name": "targetTracer",
              "type": "address"
            },
            {
              "internalType": "uint256",
              "name": "nonce",
              "type": "uint256"
            }
          ],
          "internalType": "struct Types.LimitOrder",
          "name": "order",
          "type": "tuple"
        },
        {
          "internalType": "bytes32",
          "name": "sigR",
          "type": "bytes32"
        },
        {
          "internalType": "bytes32",
          "name": "sigS",
          "type": "bytes32"
        },
        {
          "internalType": "uint8",
          "name": "sigV",
          "type": "uint8"
        }
      ],
      "name": "verifySignature",
      "outputs": [
        {
          "internalType": "bool",
          "name": "",
          "type": "bool"
        }
      ],
      "stateMutability": "view",
      "type": "function",
      "constant": true
    },
    {
      "inputs": [
        {
          "components": [
            {
              "internalType": "uint256",
              "name": "amount",
              "type": "uint256"
            },
            {
              "internalType": "int256",
              "name": "price",
              "type": "int256"
            },
            {
              "internalType": "bool",
              "name": "side",
              "type": "bool"
            },
            {
              "internalType": "address",
              "name": "user",
              "type": "address"
            },
            {
              "internalType": "uint256",
              "name": "expiration",
              "type": "uint256"
            },
            {
              "internalType": "address",
              "name": "targetTracer",
              "type": "address"
            },
            {
              "internalType": "uint256",
              "name": "nonce",
              "type": "uint256"
            }
          ],
          "internalType": "struct Types.LimitOrder",
          "name": "order",
          "type": "tuple"
        }
      ],
      "name": "verifyNonce",
      "outputs": [
        {
          "internalType": "bool",
          "name": "",
          "type": "bool"
        }
      ],
      "stateMutability": "view",
      "type": "function",
      "constant": true
    }
  ],
  "bytecode": "0x60a060405234801561001057600080fd5b50604080518082018252600f81526e151c9858d95c88141c9bdd1bd8dbdb608a1b6020918201528151808301835260038152620312e360ec1b9082015290516100c5917f8b73c3c69bb8fe3d512ecc4cf759cc79239f7b179b0ffacaa9a75d522b39400f917f2bb4b70b333d2a03489748181018093d28b04a50542e25db9ba4b53566d4253a917fe6bbd6277e1bf288eed5e8d1780f9a50b239e86b153736bceebccf4ea79d90b391610539913091016100e5565b60408051601f198184030181529190528051602090910120608052610111565b9485526020850193909352604084019190915260608301526001600160a01b0316608082015260a00190565b608051610af461013560003980610448528061059252806105b65250610af46000f3fe608060405234801561001057600080fd5b50600436106100885760003560e01c806370ae92d21161005b57806370ae92d2146100fe578063807c3afb14610111578063b68d180914610124578063e1b11da41461012c57610088565b80630857213c1461008d5780630f6ee57f146100a257806345e525f6146100cb578063601079f2146100de575b600080fd5b6100a061009b366004610866565b610134565b005b6100b56100b03660046108d8565b6103f4565b6040516100c29190610926565b60405180910390f35b6100b56100d9366004610800565b61041b565b6100f16100ec3660046108d8565b610444565b6040516100c29190610931565b6100f161010c3660046107de565b610506565b6100b561011f366004610800565b610518565b6100f1610590565b6100f16105b4565b806000805b85518110156103ec5761014a6105d8565b86828151811061015657fe5b60200260200101519050610185816000015160600151826000015183602001518460400151856060015161041b565b6101aa5760405162461bcd60e51b81526004016101a1906109d2565b60405180910390fd5b6101b2610606565b8783815181106101be57fe5b6020026020010151600001519050600080866001600160a01b031663337d0211846000015185602001518660400151876080015188606001516040518663ffffffff1660e01b8152600401610217959493929190610a34565b602060405180830381600087803b15801561023157600080fd5b505af1158015610245573d6000803e3d6000fd5b505050506040513d601f19601f8201168201806040525081019061026991906108f3565b60608401516001600160a01b03166000908152602081905260409020805460010190559050855b89518110156103db576102a16105d8565b8a82815181106102ad57fe5b602002602001015190506102dc816000015160600151826000015183602001518460400151856060015161041b565b6102f85760405162461bcd60e51b81526004016101a19061099d565b610300610606565b508051602080870151908201511461032a5760405162461bcd60e51b81526004016101a190610a07565b85518151860111156103405782985050506103db565b80516060820151604051639c9e2a4160e01b81526001600160a01b038d1692639c9e2a41926103759289929190600401610a60565b600060405180830381600087803b15801561038f57600080fd5b505af11580156103a3573d6000803e3d6000fd5b5050825160608401516001600160a01b0316600090815260208190526040902080546001019055969096019550505050600101610290565b505060019093019250610139915050565b505050505050565b60608101516001600160a01b031660009081526020819052604090205460c0909101511490565b600061042a8686868686610518565b801561043a575061043a856103f4565b9695505050505050565b60007f00000000000000000000000000000000000000000000000000000000000000007f9161016d3f17d6b7962744628feae9d2f8dc0636313799aba3e08efc2012808d836000015184602001518560400151866060015187608001518860a001518960c001516040516020016104c298979695949392919061093a565b604051602081830303815290604052805190602001206040516020016104e992919061090b565b604051602081830303815290604052805190602001209050919050565b60006020819052908152604090205481565b6000600161052586610444565b83868660405160008152602001604052604051610545949392919061097f565b6020604051602081039080840390855afa158015610567573d6000803e3d6000fd5b505050602060405103516001600160a01b0316866001600160a01b031614905095945050505050565b7f000000000000000000000000000000000000000000000000000000000000000090565b7f000000000000000000000000000000000000000000000000000000000000000081565b60405180608001604052806105eb610606565b81526000602082018190526040820181905260609091015290565b6040518060e00160405280600081526020016000815260200160001515815260200160006001600160a01b031681526020016000815260200160006001600160a01b03168152602001600081525090565b80356001600160a01b038116811461066e57600080fd5b92915050565b600082601f830112610684578081fd5b813567ffffffffffffffff81111561069a578182fd5b60206106a98182840201610a7f565b8281529250808301848201610140808502870184018810156106ca57600080fd5b60005b858110156106f1576106df898461077f565b845292840192918101916001016106cd565b50505050505092915050565b600060e0828403121561070e578081fd5b61071860e0610a7f565b905081358152602082013560208201526040820135801515811461073b57600080fd5b6040820152606082013561074e81610aa6565b60608201526080828101359082015261076a8360a08401610657565b60a082015260c082013560c082015292915050565b60006101408284031215610791578081fd5b61079b6080610a7f565b90506107a783836106fd565b815260e08201356020820152610100820135604082015261012082013560ff811681146107d357600080fd5b606082015292915050565b6000602082840312156107ef578081fd5b6107f98383610657565b9392505050565b60008060008060006101608688031215610818578081fd5b853561082381610aa6565b945061083287602088016106fd565b93506101008601359250610120860135915061014086013560ff81168114610858578182fd5b809150509295509295909350565b60008060006060848603121561087a578283fd5b833567ffffffffffffffff80821115610891578485fd5b61089d87838801610674565b945060208601359150808211156108b2578384fd5b506108bf86828701610674565b9250506108cf8560408601610657565b90509250925092565b600060e082840312156108e9578081fd5b6107f983836106fd565b600060208284031215610904578081fd5b5051919050565b61190160f01b81526002810192909252602282015260420190565b901515815260200190565b90815260200190565b9788526020880196909652604087019490945291151560608601526001600160a01b03908116608086015260a08501919091521660c083015260e08201526101000190565b93845260ff9290921660208401526040830152606082015260800190565b6020808252818101527f5444523a20696e636f72726563742074616b6520736967206f72206e6f6e6365604082015260600190565b6020808252818101527f5444523a20696e636f7272656374206d616b6520736967206f72206e6f6e6365604082015260600190565b6020808252601390820152720a888a47440e0e4d2c6ca40dad2e6dac2e8c6d606b1b604082015260600190565b9485526020850193909352901515604084015260608301526001600160a01b0316608082015260a00190565b92835260208301919091526001600160a01b0316604082015260600190565b60405181810167ffffffffffffffff81118282101715610a9e57600080fd5b604052919050565b6001600160a01b0381168114610abb57600080fd5b5056fea264697066735822122083b96a35d0297d370373b4be759f33e6f9d98176ba877ca85df77d8d6027c99a64736f6c634300060c0033",
  "immutableReferences": {
    "8631": [
      {
        "length": 32,
        "start": 1096
      },
      {
        "length": 32,
        "start": 1426
      },
      {
        "length": 32,
        "start": 1462
      }
    ]
  },
  "source": "// SPDX-License-Identifier: GPL-3.0-or-later\npragma solidity >= 0.6.0;\npragma experimental ABIEncoderV2;\n\nimport \"./Interfaces/ITracer.sol\";\nimport \"./Interfaces/Types.sol\";\n\n/**\n * The Trader contract is used to validate and execute off chain signed and matched orders\n */\ncontract Trader {\n    // EIP712 Constants\n    // https://eips.ethereum.org/EIPS/eip-712\n    string private constant EIP712_DOMAIN_NAME = \"Tracer Protocol\";\n    string private constant EIP712_DOMAIN_VERSION = \"1.0\";\n    bytes32 private constant EIP712_DOMAIN_SEPERATOR = keccak256(\n        \"EIP712Domain(string name,string version,uint256 chainId,address verifyingContract)\"\n    );\n\n    // EIP712 Types\n    bytes32 private constant LIMIT_ORDER_TYPE = keccak256(\n        \"LimitOrder(uint256 amount,int256 price,bool side,address user,uint256 expiration,address targetTracer,uint256 nonce)\"\n    );\n\n    uint256 constant chainId = 1337; // Changes per chain\n    bytes32 public immutable EIP712_DOMAIN;\n    // Trader => nonce\n    mapping(address => uint256) public nonce; // Prevents replay attacks\n\n    event Verify(address sig);\n    event CheckOrder(uint256 amount, int256 price, bool side, address user, uint256 expiration, address targetTracer);\n\n    constructor() public {\n        // Construct the EIP712 Domain\n        EIP712_DOMAIN = keccak256(\n            abi.encode(\n                EIP712_DOMAIN_SEPERATOR,\n                keccak256(bytes(EIP712_DOMAIN_NAME)),\n                keccak256(bytes(EIP712_DOMAIN_VERSION)),\n                chainId,\n                address(this)\n            )\n        );\n    }\n\n    /**\n     * @notice Batch executes maker and taker orders against a given market. Currently matching works\n     *         by fully matching a single take order with N make orders, and then moving to the next take\n     *         order.\n     * @param makerOrders An array of signed make orders\n     * @param takerOrders An array of signed take orders\n     * @param market The market to execute the trade in\n     */\n    function executeTrade(\n        Types.SignedLimitOrder[] memory makerOrders,\n        Types.SignedLimitOrder[] memory takerOrders,\n        address market\n    ) external {\n        ITracer tracer = ITracer(market);\n        // Treat make orders and taker orders as a stack\n        // Take from make and match with take until fully matched\n        uint256 latestTake = 0;\n        for (uint256 i = 0; i < makerOrders.length; i++) {\n            Types.SignedLimitOrder memory currentMakeSigned = makerOrders[i];\n            // verify signature and nonce\n            require(\n                verify(\n                    currentMakeSigned.order.user,\n                    currentMakeSigned.order,\n                    currentMakeSigned.sigR,\n                    currentMakeSigned.sigS,\n                    currentMakeSigned.sigV\n                ),\n\n                \"TDR: incorrect make sig or nonce\"\n            );\n            Types.LimitOrder memory currentMake = makerOrders[i].order;\n            uint256 filled = 0;\n            uint256 orderId = tracer.permissionedMakeOrder(\n                currentMake.amount,\n                currentMake.price,\n                currentMake.side,\n                currentMake.expiration,\n                currentMake.user\n            );\n\n            // Increment nonce\n            nonce[currentMake.user]++;\n\n            // Walk through available take orders\n            for (uint256 j = latestTake; j < takerOrders.length; j++) {\n                Types.SignedLimitOrder memory currentTakeSigned = takerOrders[j];\n                // verify signature and nonce\n                require(\n                    verify(\n                        currentTakeSigned.order.user,\n                        currentTakeSigned.order,\n                        currentTakeSigned.sigR,\n                        currentTakeSigned.sigS,\n                        currentTakeSigned.sigV\n                    ),\n                    \"TDR: incorrect take sig or nonce\"\n                );\n                Types.LimitOrder memory currentTake = currentTakeSigned.order;\n                // Order matching validation\n                require(currentTake.price == currentMake.price, \"TDR: price mismatch\");\n                if (currentTake.amount + filled > currentMake.amount) {\n                    // Dont bother taking order, order already over filled.\n                    latestTake = j;\n                    break;\n                } else {\n                    tracer.permissionedTakeOrder(orderId, currentTake.amount, currentTake.user);\n                    filled += currentTake.amount;\n                    // Increment nonce\n                    nonce[currentTake.user]++;\n                }\n            }\n        }\n    }\n\n    /**\n     * @notice hashes a limit order type in order to verify signatures\n     * @param order The limit order being hashed\n     * @return an EIP712 compliant hash (with headers) of the limit order\n     */\n    function hashOrder(Types.LimitOrder memory order) public view returns (bytes32) {\n        return\n        keccak256(\n                abi.encodePacked(\n                    \"\\x19\\x01\",\n                    EIP712_DOMAIN,\n                    keccak256(\n                        abi.encode(\n                            LIMIT_ORDER_TYPE,\n                            order.amount,\n                            order.price,\n                            order.side,\n                            order.user,\n                            order.expiration,\n                            order.targetTracer,\n                            order.nonce\n                        )\n                    )\n            )\n        );\n    }\n\n    /**\n     * @notice Gets the EIP712 domain hash of the contract\n     */\n    function getDomain() external view returns (bytes32) {\n        return EIP712_DOMAIN;\n    }\n\n    /**\n    * @notice Verifies a given limit order has been signed by a given signer and has a correct nonce\n    * @param signer The signer who is being verified against the order\n    * @param order The unsigned order to verify the signature of\n    * @param sigR R component of the signature\n    * @param sigS S component of the signature\n    * @param sigV V component of the signature\n    * @return true is signer has signed the order as given by the signature components\n    *         and if the nonce of the order is correct else false.\n    */\n    function verify(\n        address signer,\n        Types.LimitOrder memory order,\n        bytes32 sigR,\n        bytes32 sigS,\n        uint8 sigV\n    ) public view returns (bool) {\n        return verifySignature(signer, order, sigR, sigS, sigV) && verifyNonce(order);\n    }\n\n    /**\n     * @notice Verifies the signature component of a signed order\n     * @param signer The signer who is being verified against the order\n     * @param order The unsigned order to verify the signature of\n     * @param sigR R component of the signature\n     * @param sigS S component of the signature\n     * @param sigV V component of the signature\n     * @return true is signer has signed the order, else false\n     */\n    function verifySignature(\n        address signer,\n        Types.LimitOrder memory order,\n        bytes32 sigR,\n        bytes32 sigS,\n        uint8 sigV\n    ) public view returns (bool) {\n        return signer == ecrecover(hashOrder(order), sigV, sigR, sigS);\n    }\n\n    /**\n     * @notice Verifies that the nonce of a order is the current user nonce\n     * @param order The order being verified \n     */\n    function verifyNonce(Types.LimitOrder memory order) public view returns (bool) {\n        return order.nonce == nonce[order.user];\n    }\n}\n",
  "sourcePath": "/Users/raymondmogg/Documents/dev/LMD/tracer/contracts/Trader.sol",
  "compiler": {
    "name": "solc",
    "version": "0.6.12+commit.27d51765.Emscripten.clang"
  },
  "schemaVersion": "3.3.2",
  "updatedAt": "2021-02-10T05:01:50.096Z",
  "networkType": "ethereum",
  "devdoc": {
    "kind": "dev",
    "methods": {
      "executeTrade(((uint256,int256,bool,address,uint256,address,uint256),bytes32,bytes32,uint8)[],((uint256,int256,bool,address,uint256,address,uint256),bytes32,bytes32,uint8)[],address)": {
        "params": {
          "makerOrders": "An array of signed make orders",
          "market": "The market to execute the trade in",
          "takerOrders": "An array of signed take orders"
        }
      },
      "hashOrder((uint256,int256,bool,address,uint256,address,uint256))": {
        "params": {
          "order": "The limit order being hashed"
        },
        "returns": {
          "_0": "an EIP712 compliant hash (with headers) of the limit order"
        }
      },
      "verify(address,(uint256,int256,bool,address,uint256,address,uint256),bytes32,bytes32,uint8)": {
        "params": {
          "order": "The unsigned order to verify the signature of",
          "sigR": "R component of the signature",
          "sigS": "S component of the signature",
          "sigV": "V component of the signature",
          "signer": "The signer who is being verified against the order"
        },
        "returns": {
          "_0": "true is signer has signed the order as given by the signature components         and if the nonce of the order is correct else false."
        }
      },
      "verifyNonce((uint256,int256,bool,address,uint256,address,uint256))": {
        "params": {
          "order": "The order being verified "
        }
      },
      "verifySignature(address,(uint256,int256,bool,address,uint256,address,uint256),bytes32,bytes32,uint8)": {
        "params": {
          "order": "The unsigned order to verify the signature of",
          "sigR": "R component of the signature",
          "sigS": "S component of the signature",
          "sigV": "V component of the signature",
          "signer": "The signer who is being verified against the order"
        },
        "returns": {
          "_0": "true is signer has signed the order, else false"
        }
      }
    },
    "version": 1
  },
  "userdoc": {
    "kind": "user",
    "methods": {
      "executeTrade(((uint256,int256,bool,address,uint256,address,uint256),bytes32,bytes32,uint8)[],((uint256,int256,bool,address,uint256,address,uint256),bytes32,bytes32,uint8)[],address)": {
        "notice": "Batch executes maker and taker orders against a given market. Currently matching works         by fully matching a single take order with N make orders, and then moving to the next take         order."
      },
      "getDomain()": {
        "notice": "Gets the EIP712 domain hash of the contract"
      },
      "hashOrder((uint256,int256,bool,address,uint256,address,uint256))": {
        "notice": "hashes a limit order type in order to verify signatures"
      },
      "verify(address,(uint256,int256,bool,address,uint256,address,uint256),bytes32,bytes32,uint8)": {
        "notice": "Verifies a given limit order has been signed by a given signer and has a correct nonce"
      },
      "verifyNonce((uint256,int256,bool,address,uint256,address,uint256))": {
        "notice": "Verifies that the nonce of a order is the current user nonce"
      },
      "verifySignature(address,(uint256,int256,bool,address,uint256,address,uint256),bytes32,bytes32,uint8)": {
        "notice": "Verifies the signature component of a signed order"
      }
    },
    "notice": "The Trader contract is used to validate and execute off chain signed and matched orders",
    "version": 1
  }
}